{
  "contractName": "SolnSquareVerifier",
  "abi": [
    {
      "constant": true,
      "inputs": [
        {
          "name": "interfaceId",
          "type": "bytes4"
        }
      ],
      "name": "supportsInterface",
      "outputs": [
        {
          "name": "",
          "type": "bool"
        }
      ],
      "payable": false,
      "stateMutability": "view",
      "type": "function"
    },
    {
      "constant": true,
      "inputs": [
        {
          "name": "tokenId",
          "type": "uint256"
        }
      ],
      "name": "getApproved",
      "outputs": [
        {
          "name": "",
          "type": "address"
        }
      ],
      "payable": false,
      "stateMutability": "view",
      "type": "function"
    },
    {
      "constant": false,
      "inputs": [
        {
          "name": "to",
          "type": "address"
        },
        {
          "name": "tokenId",
          "type": "uint256"
        }
      ],
      "name": "approve",
      "outputs": [],
      "payable": false,
      "stateMutability": "nonpayable",
      "type": "function"
    },
    {
      "constant": true,
      "inputs": [],
      "name": "getOwnerAddress",
      "outputs": [
        {
          "name": "",
          "type": "address"
        }
      ],
      "payable": false,
      "stateMutability": "view",
      "type": "function"
    },
    {
      "constant": false,
      "inputs": [],
      "name": "getSymbol",
      "outputs": [
        {
          "name": "",
          "type": "string"
        }
      ],
      "payable": false,
      "stateMutability": "nonpayable",
      "type": "function"
    },
    {
      "constant": false,
      "inputs": [],
      "name": "getName",
      "outputs": [
        {
          "name": "",
          "type": "string"
        }
      ],
      "payable": false,
      "stateMutability": "nonpayable",
      "type": "function"
    },
    {
      "constant": true,
      "inputs": [],
      "name": "totalSupply",
      "outputs": [
        {
          "name": "",
          "type": "uint256"
        }
      ],
      "payable": false,
      "stateMutability": "view",
      "type": "function"
    },
    {
      "constant": false,
      "inputs": [
        {
          "name": "from",
          "type": "address"
        },
        {
          "name": "to",
          "type": "address"
        },
        {
          "name": "tokenId",
          "type": "uint256"
        }
      ],
      "name": "transferFrom",
      "outputs": [],
      "payable": false,
      "stateMutability": "nonpayable",
      "type": "function"
    },
    {
      "constant": false,
      "inputs": [
        {
          "name": "_myid",
          "type": "bytes32"
        },
        {
          "name": "_result",
          "type": "string"
        }
      ],
      "name": "__callback",
      "outputs": [],
      "payable": false,
      "stateMutability": "nonpayable",
      "type": "function"
    },
    {
      "constant": true,
      "inputs": [
        {
          "name": "owner",
          "type": "address"
        },
        {
          "name": "index",
          "type": "uint256"
        }
      ],
      "name": "tokenOfOwnerByIndex",
      "outputs": [
        {
          "name": "",
          "type": "uint256"
        }
      ],
      "payable": false,
      "stateMutability": "view",
      "type": "function"
    },
    {
      "constant": false,
      "inputs": [
        {
          "name": "_myid",
          "type": "bytes32"
        },
        {
          "name": "_result",
          "type": "string"
        },
        {
          "name": "_proof",
          "type": "bytes"
        }
      ],
      "name": "__callback",
      "outputs": [],
      "payable": false,
      "stateMutability": "nonpayable",
      "type": "function"
    },
    {
      "constant": false,
      "inputs": [
        {
          "name": "from",
          "type": "address"
        },
        {
          "name": "to",
          "type": "address"
        },
        {
          "name": "tokenId",
          "type": "uint256"
        }
      ],
      "name": "safeTransferFrom",
      "outputs": [],
      "payable": false,
      "stateMutability": "nonpayable",
      "type": "function"
    },
    {
      "constant": true,
      "inputs": [
        {
          "name": "index",
          "type": "uint256"
        }
      ],
      "name": "tokenByIndex",
      "outputs": [
        {
          "name": "",
          "type": "uint256"
        }
      ],
      "payable": false,
      "stateMutability": "view",
      "type": "function"
    },
    {
      "constant": true,
      "inputs": [
        {
          "name": "tokenId",
          "type": "uint256"
        }
      ],
      "name": "ownerOf",
      "outputs": [
        {
          "name": "",
          "type": "address"
        }
      ],
      "payable": false,
      "stateMutability": "view",
      "type": "function"
    },
    {
      "constant": true,
      "inputs": [
        {
          "name": "owner",
          "type": "address"
        }
      ],
      "name": "balanceOf",
      "outputs": [
        {
          "name": "",
          "type": "uint256"
        }
      ],
      "payable": false,
      "stateMutability": "view",
      "type": "function"
    },
    {
      "constant": false,
      "inputs": [],
      "name": "getBaseTokeURI",
      "outputs": [
        {
          "name": "",
          "type": "string"
        }
      ],
      "payable": false,
      "stateMutability": "nonpayable",
      "type": "function"
    },
    {
      "constant": false,
      "inputs": [],
      "name": "pause",
      "outputs": [],
      "payable": false,
      "stateMutability": "nonpayable",
      "type": "function"
    },
    {
      "constant": false,
      "inputs": [
        {
          "name": "to",
          "type": "address"
        },
        {
          "name": "approved",
          "type": "bool"
        }
      ],
      "name": "setApprovalForAll",
      "outputs": [],
      "payable": false,
      "stateMutability": "nonpayable",
      "type": "function"
    },
    {
      "constant": true,
      "inputs": [],
      "name": "_owner",
      "outputs": [
        {
          "name": "",
          "type": "address"
        }
      ],
      "payable": false,
      "stateMutability": "view",
      "type": "function"
    },
    {
      "constant": false,
      "inputs": [
        {
          "name": "from",
          "type": "address"
        },
        {
          "name": "to",
          "type": "address"
        },
        {
          "name": "tokenId",
          "type": "uint256"
        },
        {
          "name": "_data",
          "type": "bytes"
        }
      ],
      "name": "safeTransferFrom",
      "outputs": [],
      "payable": false,
      "stateMutability": "nonpayable",
      "type": "function"
    },
    {
      "constant": false,
      "inputs": [
        {
          "name": "tokenId",
          "type": "uint256"
        }
      ],
      "name": "setTokenURI",
      "outputs": [],
      "payable": false,
      "stateMutability": "nonpayable",
      "type": "function"
    },
    {
      "constant": true,
      "inputs": [
        {
          "name": "tokenId",
          "type": "uint256"
        }
      ],
      "name": "tokenURI",
      "outputs": [
        {
          "name": "",
          "type": "string"
        }
      ],
      "payable": false,
      "stateMutability": "view",
      "type": "function"
    },
    {
      "constant": true,
      "inputs": [
        {
          "name": "owner",
          "type": "address"
        },
        {
          "name": "operator",
          "type": "address"
        }
      ],
      "name": "isApprovedForAll",
      "outputs": [
        {
          "name": "",
          "type": "bool"
        }
      ],
      "payable": false,
      "stateMutability": "view",
      "type": "function"
    },
    {
      "constant": false,
      "inputs": [
        {
          "name": "newOwner",
          "type": "address"
        }
      ],
      "name": "transferOwnership",
      "outputs": [],
      "payable": false,
      "stateMutability": "nonpayable",
      "type": "function"
    },
    {
      "constant": false,
      "inputs": [],
      "name": "unPause",
      "outputs": [],
      "payable": false,
      "stateMutability": "nonpayable",
      "type": "function"
    },
    {
      "inputs": [
        {
          "name": "verifiersContractAddress",
          "type": "address"
        },
        {
          "name": "name",
          "type": "string"
        },
        {
          "name": "symbol",
          "type": "string"
        }
      ],
      "payable": false,
      "stateMutability": "nonpayable",
      "type": "constructor"
    },
    {
      "anonymous": false,
      "inputs": [
        {
          "indexed": false,
          "name": "account",
          "type": "address"
        }
      ],
      "name": "SolutionAdded",
      "type": "event"
    },
    {
      "anonymous": false,
      "inputs": [
        {
          "indexed": true,
          "name": "from",
          "type": "address"
        },
        {
          "indexed": true,
          "name": "to",
          "type": "address"
        },
        {
          "indexed": true,
          "name": "tokenId",
          "type": "uint256"
        }
      ],
      "name": "Transfer",
      "type": "event"
    },
    {
      "anonymous": false,
      "inputs": [
        {
          "indexed": true,
          "name": "owner",
          "type": "address"
        },
        {
          "indexed": true,
          "name": "approved",
          "type": "address"
        },
        {
          "indexed": true,
          "name": "tokenId",
          "type": "uint256"
        }
      ],
      "name": "Approval",
      "type": "event"
    },
    {
      "anonymous": false,
      "inputs": [
        {
          "indexed": true,
          "name": "owner",
          "type": "address"
        },
        {
          "indexed": true,
          "name": "operator",
          "type": "address"
        },
        {
          "indexed": false,
          "name": "approved",
          "type": "bool"
        }
      ],
      "name": "ApprovalForAll",
      "type": "event"
    },
    {
      "anonymous": false,
      "inputs": [
        {
          "indexed": false,
          "name": "caller",
          "type": "address"
        }
      ],
      "name": "Paused",
      "type": "event"
    },
    {
      "anonymous": false,
      "inputs": [
        {
          "indexed": false,
          "name": "caller",
          "type": "address"
        }
      ],
      "name": "Unpause",
      "type": "event"
    },
    {
      "anonymous": false,
      "inputs": [
        {
          "indexed": false,
          "name": "newOwner",
          "type": "address"
        }
      ],
      "name": "OwnerShipTransferEvent",
      "type": "event"
    },
    {
      "constant": false,
      "inputs": [
        {
          "name": "tokenId",
          "type": "uint256"
        }
      ],
      "name": "solutionExists",
      "outputs": [
        {
          "name": "",
          "type": "bool"
        }
      ],
      "payable": false,
      "stateMutability": "nonpayable",
      "type": "function"
    },
    {
      "constant": false,
      "inputs": [
        {
          "name": "a",
          "type": "uint256[2]"
        },
        {
          "name": "b",
          "type": "uint256[2][2]"
        },
        {
          "name": "c",
          "type": "uint256[2]"
        },
        {
          "name": "input",
          "type": "uint256[2]"
        },
        {
          "name": "tokenId",
          "type": "uint256"
        }
      ],
      "name": "mint",
      "outputs": [],
      "payable": false,
      "stateMutability": "nonpayable",
      "type": "function"
    },
    {
      "constant": false,
      "inputs": [
        {
          "name": "to",
          "type": "address"
        },
        {
          "name": "tokenId",
          "type": "uint256"
        }
      ],
      "name": "mint",
      "outputs": [
        {
          "name": "",
          "type": "bool"
        }
      ],
      "payable": false,
      "stateMutability": "nonpayable",
      "type": "function"
    }
  ],
  "bytecode": "0x60806040526040805190810160405280600581526020017f41444d414e000000000000000000000000000000000000000000000000000000815250601390805190602001906200005192919062000548565b506040805190810160405280600381526020017f41444d0000000000000000000000000000000000000000000000000000000000815250601490805190602001906200009f92919062000548565b50606060405190810160405280603f81526020017f68747470733a2f2f73332d75732d776573742d322e616d617a6f6e6177732e6381526020017f6f6d2f756461636974792d626c6f636b636861696e2f63617073746f6e652f00815250601590805190602001906200011492919062000548565b5060016016553480156200012757600080fd5b506040516200423d3803806200423d833981018060405260608110156200014d57600080fd5b810190808051906020019092919080516401000000008111156200017057600080fd5b828101905060208101848111156200018757600080fd5b8151856001820283011164010000000082111715620001a557600080fd5b50509291906020018051640100000000811115620001c257600080fd5b82810190506020810184811115620001d957600080fd5b8151856001820283011164010000000082111715620001f757600080fd5b50509291905050508181818160158054600181600116156101000203166002900480601f0160208091040260200160405190810160405280929190818152602001828054600181600116156101000203166002900480156200029d5780601f1062000271576101008083540402835291602001916200029d565b820191906000526020600020905b8154815290600101906020018083116200027f57829003601f168201915b5050505050336000806101000a81548173ffffffffffffffffffffffffffffffffffffffff021916908373ffffffffffffffffffffffffffffffffffffffff16021790555060008060146101000a81548160ff021916908315150217905550620003396301ffc9a77c0100000000000000000000000000000000000000000000000000000000026200048a640100000000026401000000009004565b620003766380ac58cd7c0100000000000000000000000000000000000000000000000000000000026200048a640100000000026401000000009004565b620003b363780e9d637c0100000000000000000000000000000000000000000000000000000000026200048a640100000000026401000000009004565b82600f9080519060200190620003cb92919062000548565b508160109080519060200190620003e492919062000548565b508060119080519060200190620003fd92919062000548565b506200043b635b5e139f7c0100000000000000000000000000000000000000000000000000000000026200048a640100000000026401000000009004565b505050505082601760006101000a81548173ffffffffffffffffffffffffffffffffffffffff021916908373ffffffffffffffffffffffffffffffffffffffff160217905550505050620005f7565b63ffffffff7c010000000000000000000000000000000000000000000000000000000002817bffffffffffffffffffffffffffffffffffffffffffffffffffffffff191614151515620004dc57600080fd5b6001806000837bffffffffffffffffffffffffffffffffffffffffffffffffffffffff19167bffffffffffffffffffffffffffffffffffffffffffffffffffffffff1916815260200190815260200160002060006101000a81548160ff02191690831515021790555050565b828054600181600116156101000203166002900490600052602060002090601f016020900481019282601f106200058b57805160ff1916838001178555620005bc565b82800160010185558215620005bc579182015b82811115620005bb5782518255916020019190600101906200059e565b5b509050620005cb9190620005cf565b5090565b620005f491905b80821115620005f0576000816000905550600101620005d6565b5090565b90565b613c3680620006076000396000f3fe60806040526004361061016a576000357c0100000000000000000000000000000000000000000000000000000000900463ffffffff16806301ffc9a71461016f578063081812fc146101e1578063095ea7b31461025c5780630c4f65bd146102b7578063150704011461030e57806317d7de7c1461039e57806318160ddd1461042e5780631b847f941461045957806323b872dd146105d157806327dc297e1461064c5780632f745c591461071e57806338bbfa501461078d57806340c10f19146108f657806342842e0e146109695780634d5572ff146109e45780634f6ccce714610a375780636352211e14610a8657806370a0823114610b0157806370a6a5b214610b665780638456cb5914610bf6578063a22cb46514610c0d578063b2bdfa7b14610c6a578063b88d4fde14610cc1578063bff2612614610dd3578063c87b56dd14610e0e578063e985e9c514610ec2578063f2fde38b14610f4b578063f7b188a514610f9c575b600080fd5b34801561017b57600080fd5b506101c76004803603602081101561019257600080fd5b8101908080357bffffffffffffffffffffffffffffffffffffffffffffffffffffffff19169060200190929190505050610fb3565b604051808215151515815260200191505060405180910390f35b3480156101ed57600080fd5b5061021a6004803603602081101561020457600080fd5b810190808035906020019092919050505061101b565b604051808273ffffffffffffffffffffffffffffffffffffffff1673ffffffffffffffffffffffffffffffffffffffff16815260200191505060405180910390f35b34801561026857600080fd5b506102b56004803603604081101561027f57600080fd5b81019080803573ffffffffffffffffffffffffffffffffffffffff16906020019092919080359060200190929190505050611058565b005b3480156102c357600080fd5b506102cc611335565b604051808273ffffffffffffffffffffffffffffffffffffffff1673ffffffffffffffffffffffffffffffffffffffff16815260200191505060405180910390f35b34801561031a57600080fd5b5061032361135e565b6040518080602001828103825283818151815260200191508051906020019080838360005b83811015610363578082015181840152602081019050610348565b50505050905090810190601f1680156103905780820380516001836020036101000a031916815260200191505b509250505060405180910390f35b3480156103aa57600080fd5b506103b3611400565b6040518080602001828103825283818151815260200191508051906020019080838360005b838110156103f35780820151818401526020810190506103d8565b50505050905090810190601f1680156104205780820380516001836020036101000a031916815260200191505b509250505060405180910390f35b34801561043a57600080fd5b506104436114a2565b6040518082815260200191505060405180910390f35b34801561046557600080fd5b506105cf600480360361016081101561047d57600080fd5b8101908080604001906002806020026040519081016040528092919082600260200280828437600081840152601f19601f82011690508083019250505050505091929192908060800190600280602002604051908101604052809291906000905b82821015610532578382604002016002806020026040519081016040528092919082600260200280828437600081840152601f19601f820116905080830192505050505050815260200190600101906104de565b50505050919291929080604001906002806020026040519081016040528092919082600260200280828437600081840152601f19601f820116905080830192505050505050919291929080604001906002806020026040519081016040528092919082600260200280828437600081840152601f19601f8201169050808301925050505050509192919290803590602001909291905050506114af565b005b3480156105dd57600080fd5b5061064a600480360360608110156105f457600080fd5b81019080803573ffffffffffffffffffffffffffffffffffffffff169060200190929190803573ffffffffffffffffffffffffffffffffffffffff16906020019092919080359060200190929190505050611785565b005b34801561065857600080fd5b5061071c6004803603604081101561066f57600080fd5b81019080803590602001909291908035906020019064010000000081111561069657600080fd5b8201836020820111156106a857600080fd5b803590602001918460018302840111640100000000831117156106ca57600080fd5b91908080601f016020809104026020016040519081016040528093929190818152602001838380828437600081840152601f19601f8201169050808301925050505050505091929192905050506117aa565b005b34801561072a57600080fd5b506107776004803603604081101561074157600080fd5b81019080803573ffffffffffffffffffffffffffffffffffffffff169060200190929190803590602001909291905050506117ed565b6040518082815260200191505060405180910390f35b34801561079957600080fd5b506108f4600480360360608110156107b057600080fd5b8101908080359060200190929190803590602001906401000000008111156107d757600080fd5b8201836020820111156107e957600080fd5b8035906020019184600183028401116401000000008311171561080b57600080fd5b91908080601f016020809104026020016040519081016040528093929190818152602001838380828437600081840152601f19601f8201169050808301925050505050505091929192908035906020019064010000000081111561086e57600080fd5b82018360208201111561088057600080fd5b803590602001918460018302840111640100000000831117156108a257600080fd5b91908080601f016020809104026020016040519081016040528093929190818152602001838380828437600081840152601f19601f820116905080830192505050505050509192919290505050611864565b005b34801561090257600080fd5b5061094f6004803603604081101561091957600080fd5b81019080803573ffffffffffffffffffffffffffffffffffffffff16906020019092919080359060200190929190505050611869565b604051808215151515815260200191505060405180910390f35b34801561097557600080fd5b506109e26004803603606081101561098c57600080fd5b81019080803573ffffffffffffffffffffffffffffffffffffffff169060200190929190803573ffffffffffffffffffffffffffffffffffffffff16906020019092919080359060200190929190505050611a49565b005b3480156109f057600080fd5b50610a1d60048036036020811015610a0757600080fd5b8101908080359060200190929190505050611a6a565b604051808215151515815260200191505060405180910390f35b348015610a4357600080fd5b50610a7060048036036020811015610a5a57600080fd5b8101908080359060200190929190505050611a97565b6040518082815260200191505060405180910390f35b348015610a9257600080fd5b50610abf60048036036020811015610aa957600080fd5b8101908080359060200190929190505050611acf565b604051808273ffffffffffffffffffffffffffffffffffffffff1673ffffffffffffffffffffffffffffffffffffffff16815260200191505060405180910390f35b348015610b0d57600080fd5b50610b5060048036036020811015610b2457600080fd5b81019080803573ffffffffffffffffffffffffffffffffffffffff169060200190929190505050611b0c565b6040518082815260200191505060405180910390f35b348015610b7257600080fd5b50610b7b611b5c565b6040518080602001828103825283818151815260200191508051906020019080838360005b83811015610bbb578082015181840152602081019050610ba0565b50505050905090810190601f168015610be85780820380516001836020036101000a031916815260200191505b509250505060405180910390f35b348015610c0257600080fd5b50610c0b611bfe565b005b348015610c1957600080fd5b50610c6860048036036040811015610c3057600080fd5b81019080803573ffffffffffffffffffffffffffffffffffffffff169060200190929190803515159060200190929190505050611e3e565b005b348015610c7657600080fd5b50610c7f611f7a565b604051808273ffffffffffffffffffffffffffffffffffffffff1673ffffffffffffffffffffffffffffffffffffffff16815260200191505060405180910390f35b348015610ccd57600080fd5b50610dd160048036036080811015610ce457600080fd5b81019080803573ffffffffffffffffffffffffffffffffffffffff169060200190929190803573ffffffffffffffffffffffffffffffffffffffff1690602001909291908035906020019092919080359060200190640100000000811115610d4b57600080fd5b820183602082011115610d5d57600080fd5b80359060200191846001830284011164010000000083111715610d7f57600080fd5b91908080601f016020809104026020016040519081016040528093929190818152602001838380828437600081840152601f19601f820116905080830192505050505050509192919290505050611f9f565b005b348015610ddf57600080fd5b50610e0c60048036036020811015610df657600080fd5b8101908080359060200190929190505050611fc7565b005b348015610e1a57600080fd5b50610e4760048036036020811015610e3157600080fd5b81019080803590602001909291905050506120b1565b6040518080602001828103825283818151815260200191508051906020019080838360005b83811015610e87578082015181840152602081019050610e6c565b50505050905090810190601f168015610eb45780820380516001836020036101000a031916815260200191505b509250505060405180910390f35b348015610ece57600080fd5b50610f3160048036036040811015610ee557600080fd5b81019080803573ffffffffffffffffffffffffffffffffffffffff169060200190929190803573ffffffffffffffffffffffffffffffffffffffff16906020019092919050505061217a565b604051808215151515815260200191505060405180910390f35b348015610f5757600080fd5b50610f9a60048036036020811015610f6e57600080fd5b81019080803573ffffffffffffffffffffffffffffffffffffffff16906020019092919050505061220e565b005b348015610fa857600080fd5b50610fb161248c565b005b600060016000837bffffffffffffffffffffffffffffffffffffffffffffffffffffffff19167bffffffffffffffffffffffffffffffffffffffffffffffffffffffff1916815260200190815260200160002060009054906101000a900460ff169050919050565b60006003600083815260200190815260200160002060009054906101000a900473ffffffffffffffffffffffffffffffffffffffff169050919050565b6002600082815260200190815260200160002060009054906101000a900473ffffffffffffffffffffffffffffffffffffffff1673ffffffffffffffffffffffffffffffffffffffff168273ffffffffffffffffffffffffffffffffffffffff1614151515611155576040517f08c379a000000000000000000000000000000000000000000000000000000000815260040180806020018281038252602a8152602001807f74686520746172676574206164647265737320616c7265616479206f776e732081526020017f74686520746f6b656e2e0000000000000000000000000000000000000000000081525060400191505060405180910390fd5b6002600082815260200190815260200160002060009054906101000a900473ffffffffffffffffffffffffffffffffffffffff1673ffffffffffffffffffffffffffffffffffffffff163373ffffffffffffffffffffffffffffffffffffffff16141515611251576040517f08c379a000000000000000000000000000000000000000000000000000000000815260040180806020018281038252602a8152602001807f74686520746172676574206164647265737320616c7265616479206f776e732081526020017f74686520746f6b656e2e0000000000000000000000000000000000000000000081525060400191505060405180910390fd5b816003600083815260200190815260200160002060006101000a81548173ffffffffffffffffffffffffffffffffffffffff021916908373ffffffffffffffffffffffffffffffffffffffff160217905550808273ffffffffffffffffffffffffffffffffffffffff166002600084815260200190815260200160002060009054906101000a900473ffffffffffffffffffffffffffffffffffffffff1673ffffffffffffffffffffffffffffffffffffffff167f8c5be1e5ebec7d5bd14f71427d1e84f3dd0314c0f7b2291e5b200ac8c7c3b92560405160405180910390a45050565b60008060009054906101000a900473ffffffffffffffffffffffffffffffffffffffff16905090565b606060108054600181600116156101000203166002900480601f0160208091040260200160405190810160405280929190818152602001828054600181600116156101000203166002900480156113f65780601f106113cb576101008083540402835291602001916113f6565b820191906000526020600020905b8154815290600101906020018083116113d957829003601f168201915b5050505050905090565b6060600f8054600181600116156101000203166002900480601f0160208091040260200160405190810160405280929190818152602001828054600181600116156101000203166002900480156114985780601f1061146d57610100808354040283529160200191611498565b820191906000526020600020905b81548152906001019060200180831161147b57829003601f168201915b5050505050905090565b6000600880549050905090565b601760009054906101000a900473ffffffffffffffffffffffffffffffffffffffff1673ffffffffffffffffffffffffffffffffffffffff1663621e9ec0868686866040518563ffffffff167c01000000000000000000000000000000000000000000000000000000000281526004018085600260200280838360005b8381101561154757808201518184015260208101905061152c565b505050509050018460026000925b8184101561159b5782846020020151600260200280838360005b8381101561158a57808201518184015260208101905061156f565b505050509050019260010192611555565b9250505083600260200280838360005b838110156115c65780820151818401526020810190506115ab565b5050505090500182600260200280838360005b838110156115f45780820151818401526020810190506115d9565b50505050905001945050505050602060405180830381600087803b15801561161b57600080fd5b505af115801561162f573d6000803e3d6000fd5b505050506040513d602081101561164557600080fd5b810190808051906020019092919050505015156116ca576040517f08c379a000000000000000000000000000000000000000000000000000000000815260040180806020018281038252601b8152602001807f496d706f737369626c6520746f207665726966792070726f6f662e000000000081525060200191505060405180910390fd5b600015156019600083815260200190815260200160002060010160149054906101000a900460ff161515141515611769576040517f08c379a000000000000000000000000000000000000000000000000000000000815260040180806020018281038252601d8152602001807f546869732070726f6f6620616c7265616479207375626d69747465642e00000081525060200191505060405180910390fd5b61177333826126cd565b61177d3382611869565b505050505050565b61178f33826128d8565b151561179a57600080fd5b6117a583838361296d565b505050565b6117e9828260006040519080825280601f01601f1916602001820160405280156117e35781602001600182028038833980820191505090505b50611864565b5050565b60006117f883611b0c565b8210151561180557600080fd5b600660008473ffffffffffffffffffffffffffffffffffffffff1673ffffffffffffffffffffffffffffffffffffffff1681526020019081526020016000208281548110151561185157fe5b9060005260206000200154905092915050565b505050565b60003373ffffffffffffffffffffffffffffffffffffffff166000809054906101000a900473ffffffffffffffffffffffffffffffffffffffff1673ffffffffffffffffffffffffffffffffffffffff1614151561197b576040517f08c379a00000000000000000000000000000000000000000000000000000000081526004018080602001828103825260498152602001807f54686520757365642061646472657373206973206e6f7420746865206f776e6581526020017f72206f662074686520636f6e74726163742c206f7065726174696f6e206e6f7481526020017f20616c6c6f7765642e000000000000000000000000000000000000000000000081525060600191505060405180910390fd5b60001515600060149054906101000a900460ff161515141515611a2c576040517f08c379a000000000000000000000000000000000000000000000000000000000815260040180806020018281038252603b8152602001807f496d706f737369626c6520746f20696e766f6b652074686973206f706572617481526020017f696f6e207768656e20636f6e747261637420697320706175736564000000000081525060400191505060405180910390fd5b611a368383612991565b611a3f82611fc7565b6001905092915050565b611a658383836020604051908101604052806000815250611f9f565b505050565b60006019600083815260200190815260200160002060010160149054906101000a900460ff169050919050565b6000611aa16114a2565b82101515611aae57600080fd5b600882815481101515611abd57fe5b90600052602060002001549050919050565b60006002600083815260200190815260200160002060009054906101000a900473ffffffffffffffffffffffffffffffffffffffff169050919050565b6000611b55600460008473ffffffffffffffffffffffffffffffffffffffff1673ffffffffffffffffffffffffffffffffffffffff1681526020019081526020016000206129b2565b9050919050565b606060118054600181600116156101000203166002900480601f016020809104026020016040519081016040528092919081815260200182805460018160011615610100020316600290048015611bf45780601f10611bc957610100808354040283529160200191611bf4565b820191906000526020600020905b815481529060010190602001808311611bd757829003601f168201915b5050505050905090565b60001515600060149054906101000a900460ff161515141515611caf576040517f08c379a000000000000000000000000000000000000000000000000000000000815260040180806020018281038252603b8152602001807f496d706f737369626c6520746f20696e766f6b652074686973206f706572617481526020017f696f6e207768656e20636f6e747261637420697320706175736564000000000081525060400191505060405180910390fd5b3373ffffffffffffffffffffffffffffffffffffffff166000809054906101000a900473ffffffffffffffffffffffffffffffffffffffff1673ffffffffffffffffffffffffffffffffffffffff16141515611dbf576040517f08c379a00000000000000000000000000000000000000000000000000000000081526004018080602001828103825260498152602001807f54686520757365642061646472657373206973206e6f7420746865206f776e6581526020017f72206f662074686520636f6e74726163742c206f7065726174696f6e206e6f7481526020017f20616c6c6f7765642e000000000000000000000000000000000000000000000081525060600191505060405180910390fd5b60008060146101000a81548160ff0219169083151502179055507f62e78cea01bee320cd4e420270b5ea74000d11b0c9f74754ebdbfc544b05a25833604051808273ffffffffffffffffffffffffffffffffffffffff1673ffffffffffffffffffffffffffffffffffffffff16815260200191505060405180910390a1565b3373ffffffffffffffffffffffffffffffffffffffff168273ffffffffffffffffffffffffffffffffffffffff1614151515611e7957600080fd5b80600560003373ffffffffffffffffffffffffffffffffffffffff1673ffffffffffffffffffffffffffffffffffffffff16815260200190815260200160002060008473ffffffffffffffffffffffffffffffffffffffff1673ffffffffffffffffffffffffffffffffffffffff16815260200190815260200160002060006101000a81548160ff0219169083151502179055508173ffffffffffffffffffffffffffffffffffffffff163373ffffffffffffffffffffffffffffffffffffffff167f17307eab39ab6107e8899845ad3d59bd9653f200f220920489ca2b5937696c3183604051808215151515815260200191505060405180910390a35050565b6000809054906101000a900473ffffffffffffffffffffffffffffffffffffffff1681565b611faa848484611785565b611fb6848484846129c0565b1515611fc157600080fd5b50505050565b611fd081612be3565b1515611fdb57600080fd5b61208760118054600181600116156101000203166002900480601f0160208091040260200160405190810160405280929190818152602001828054600181600116156101000203166002900480156120745780601f1061204957610100808354040283529160200191612074565b820191906000526020600020905b81548152906001019060200180831161205757829003601f168201915b505050505061208283612c55565b612dae565b6012600083815260200190815260200160002090805190602001906120ad929190613b39565b5050565b60606120bc82612be3565b15156120c757600080fd5b601260008381526020019081526020016000208054600181600116156101000203166002900480601f01602080910402602001604051908101604052809291908181526020018280546001816001161561010002031660029004801561216e5780601f106121435761010080835404028352916020019161216e565b820191906000526020600020905b81548152906001019060200180831161215157829003601f168201915b50505050509050919050565b6000600560008473ffffffffffffffffffffffffffffffffffffffff1673ffffffffffffffffffffffffffffffffffffffff16815260200190815260200160002060008373ffffffffffffffffffffffffffffffffffffffff1673ffffffffffffffffffffffffffffffffffffffff16815260200190815260200160002060009054906101000a900460ff16905092915050565b3373ffffffffffffffffffffffffffffffffffffffff166000809054906101000a900473ffffffffffffffffffffffffffffffffffffffff1673ffffffffffffffffffffffffffffffffffffffff1614151561231e576040517f08c379a00000000000000000000000000000000000000000000000000000000081526004018080602001828103825260498152602001807f54686520757365642061646472657373206973206e6f7420746865206f776e6581526020017f72206f662074686520636f6e74726163742c206f7065726174696f6e206e6f7481526020017f20616c6c6f7765642e000000000000000000000000000000000000000000000081525060600191505060405180910390fd5b80600073ffffffffffffffffffffffffffffffffffffffff168173ffffffffffffffffffffffffffffffffffffffff16141515156123c4576040517f08c379a000000000000000000000000000000000000000000000000000000000815260040180806020018281038252600f8152602001807f496e76616c69642061646472657373000000000000000000000000000000000081525060200191505060405180910390fd5b816000806101000a81548173ffffffffffffffffffffffffffffffffffffffff021916908373ffffffffffffffffffffffffffffffffffffffff1602179055507fc7f64c2357db43a0940f16caf3432077c96f9bf891271526c9a6f31f35d7c4ad6000809054906101000a900473ffffffffffffffffffffffffffffffffffffffff16604051808273ffffffffffffffffffffffffffffffffffffffff1673ffffffffffffffffffffffffffffffffffffffff16815260200191505060405180910390a15050565b60011515600060149054906101000a900460ff16151514151561253d576040517f08c379a000000000000000000000000000000000000000000000000000000000815260040180806020018281038252603f8152602001807f496d706f737369626c6520746f20696e766f6b652074686973206f706572617481526020017f696f6e207768656e20636f6e7472616374206973206e6f74207061757365640081525060400191505060405180910390fd5b3373ffffffffffffffffffffffffffffffffffffffff166000809054906101000a900473ffffffffffffffffffffffffffffffffffffffff1673ffffffffffffffffffffffffffffffffffffffff1614151561264d576040517f08c379a00000000000000000000000000000000000000000000000000000000081526004018080602001828103825260498152602001807f54686520757365642061646472657373206973206e6f7420746865206f776e6581526020017f72206f662074686520636f6e74726163742c206f7065726174696f6e206e6f7481526020017f20616c6c6f7765642e000000000000000000000000000000000000000000000081525060600191505060405180910390fd5b6001600060146101000a81548160ff0219169083151502179055507faeb196d352664784d1900b0e7414a8face7d29f4dae8c4b0cf68ed477423bbf433604051808273ffffffffffffffffffffffffffffffffffffffff1673ffffffffffffffffffffffffffffffffffffffff16815260200191505060405180910390a1565b60186060604051908101604052808381526020018473ffffffffffffffffffffffffffffffffffffffff16815260200160011515815250908060018154018082558091505090600182039060005260206000209060020201600090919290919091506000820151816000015560208201518160010160006101000a81548173ffffffffffffffffffffffffffffffffffffffff021916908373ffffffffffffffffffffffffffffffffffffffff16021790555060408201518160010160146101000a81548160ff0219169083151502179055505050506060604051908101604052808281526020018373ffffffffffffffffffffffffffffffffffffffff16815260200160011515815250601960008381526020019081526020016000206000820151816000015560208201518160010160006101000a81548173ffffffffffffffffffffffffffffffffffffffff021916908373ffffffffffffffffffffffffffffffffffffffff16021790555060408201518160010160146101000a81548160ff0219169083151502179055509050506016600081548092919060010191905055507f209e782baeeecf4956303cb3e836fdf3f7279e6729ebccf2d309c292aedd3aeb82604051808273ffffffffffffffffffffffffffffffffffffffff1673ffffffffffffffffffffffffffffffffffffffff16815260200191505060405180910390a15050565b6000806128e483611acf565b90508073ffffffffffffffffffffffffffffffffffffffff168473ffffffffffffffffffffffffffffffffffffffff16148061295357508373ffffffffffffffffffffffffffffffffffffffff1661293b8461101b565b73ffffffffffffffffffffffffffffffffffffffff16145b806129645750612963818561217a565b5b91505092915050565b612978838383612df5565b61298283826130b4565b61298c8282613258565b505050565b61299b828261331f565b6129a58282613258565b6129ae8161353b565b5050565b600081600001549050919050565b60006129e18473ffffffffffffffffffffffffffffffffffffffff16613587565b15156129f05760019050612bdb565b60008473ffffffffffffffffffffffffffffffffffffffff1663150b7a02338887876040518563ffffffff167c0100000000000000000000000000000000000000000000000000000000028152600401808573ffffffffffffffffffffffffffffffffffffffff1673ffffffffffffffffffffffffffffffffffffffff1681526020018473ffffffffffffffffffffffffffffffffffffffff1673ffffffffffffffffffffffffffffffffffffffff16815260200183815260200180602001828103825283818151815260200191508051906020019080838360005b83811015612ae7578082015181840152602081019050612acc565b50505050905090810190601f168015612b145780820380516001836020036101000a031916815260200191505b5095505050505050602060405180830381600087803b158015612b3657600080fd5b505af1158015612b4a573d6000803e3d6000fd5b505050506040513d6020811015612b6057600080fd5b8101908080519060200190929190505050905063150b7a027c0100000000000000000000000000000000000000000000000000000000027bffffffffffffffffffffffffffffffffffffffffffffffffffffffff1916817bffffffffffffffffffffffffffffffffffffffffffffffffffffffff1916149150505b949350505050565b6000806002600084815260200190815260200160002060009054906101000a900473ffffffffffffffffffffffffffffffffffffffff169050600073ffffffffffffffffffffffffffffffffffffffff168173ffffffffffffffffffffffffffffffffffffffff161415915050919050565b60606000821415612c9d576040805190810160405280600181526020017f30000000000000000000000000000000000000000000000000000000000000008152509050612da9565b600082905060005b600082141515612ccb578080600101915050600a82811515612cc357fe5b049150612ca5565b6060816040519080825280601f01601f191660200182016040528015612d005781602001600182028038833980820191505090505b50905060006001830390505b600086141515612da157600a86811515612d2257fe5b066030017f010000000000000000000000000000000000000000000000000000000000000002828280600190039350815181101515612d5d57fe5b9060200101907effffffffffffffffffffffffffffffffffffffffffffffffffffffffffffff1916908160001a905350600a86811515612d9957fe5b049550612d0c565b819450505050505b919050565b6060612ded838360206040519081016040528060008152506020604051908101604052806000815250602060405190810160405280600081525061359a565b905092915050565b612dfe81611acf565b73ffffffffffffffffffffffffffffffffffffffff168373ffffffffffffffffffffffffffffffffffffffff16141515612ec6576040517f08c379a000000000000000000000000000000000000000000000000000000000815260040180806020018281038252602e8152602001807f7468652066726f6d2061646472657373206973206e6f7420746865206f776e6581526020017f72206f662074686520746f6b656e00000000000000000000000000000000000081525060400191505060405180910390fd5b600073ffffffffffffffffffffffffffffffffffffffff168273ffffffffffffffffffffffffffffffffffffffff1614151515612f6b576040517f08c379a00000000000000000000000000000000000000000000000000000000081526004018080602001828103825260168152602001807f696e76616c69642074617267657420616464726573730000000000000000000081525060200191505060405180910390fd5b612f74816139b5565b816002600083815260200190815260200160002060006101000a81548173ffffffffffffffffffffffffffffffffffffffff021916908373ffffffffffffffffffffffffffffffffffffffff16021790555061300d600460008573ffffffffffffffffffffffffffffffffffffffff1673ffffffffffffffffffffffffffffffffffffffff168152602001908152602001600020613a75565b613054600460008473ffffffffffffffffffffffffffffffffffffffff1673ffffffffffffffffffffffffffffffffffffffff168152602001908152602001600020613a98565b808273ffffffffffffffffffffffffffffffffffffffff168473ffffffffffffffffffffffffffffffffffffffff167fddf252ad1be2c89b69c2b068fc378daa952ba7f163c4a11628f55a4df523b3ef60405160405180910390a4505050565b600061310c6001600660008673ffffffffffffffffffffffffffffffffffffffff1673ffffffffffffffffffffffffffffffffffffffff16815260200190815260200160002080549050613aae90919063ffffffff16565b905060006007600084815260200190815260200160002054905081811415156131ff576000600660008673ffffffffffffffffffffffffffffffffffffffff1673ffffffffffffffffffffffffffffffffffffffff1681526020019081526020016000208381548110151561317d57fe5b9060005260206000200154905080600660008773ffffffffffffffffffffffffffffffffffffffff1673ffffffffffffffffffffffffffffffffffffffff168152602001908152602001600020838154811015156131d757fe5b9060005260206000200181905550816007600083815260200190815260200160002081905550505b600660008573ffffffffffffffffffffffffffffffffffffffff1673ffffffffffffffffffffffffffffffffffffffff1681526020019081526020016000208054809190600190036132519190613bb9565b5050505050565b600660008373ffffffffffffffffffffffffffffffffffffffff1673ffffffffffffffffffffffffffffffffffffffff168152602001908152602001600020805490506007600083815260200190815260200160002081905550600660008373ffffffffffffffffffffffffffffffffffffffff1673ffffffffffffffffffffffffffffffffffffffff1681526020019081526020016000208190806001815401808255809150509060018203906000526020600020016000909192909190915055505050565b600073ffffffffffffffffffffffffffffffffffffffff168273ffffffffffffffffffffffffffffffffffffffff16141515156133c4576040517f08c379a00000000000000000000000000000000000000000000000000000000081526004018080602001828103825260198152602001807f746172676574206164647265737320697320696e76616c69640000000000000081525060200191505060405180910390fd5b6133cd81612be3565b151515613442576040517f08c379a00000000000000000000000000000000000000000000000000000000081526004018080602001828103825260198152602001807f746172676574206164647265737320697320696e76616c69640000000000000081525060200191505060405180910390fd5b816002600083815260200190815260200160002060006101000a81548173ffffffffffffffffffffffffffffffffffffffff021916908373ffffffffffffffffffffffffffffffffffffffff1602179055506134db600460008473ffffffffffffffffffffffffffffffffffffffff1673ffffffffffffffffffffffffffffffffffffffff168152602001908152602001600020613a98565b808273ffffffffffffffffffffffffffffffffffffffff16600073ffffffffffffffffffffffffffffffffffffffff167fddf252ad1be2c89b69c2b068fc378daa952ba7f163c4a11628f55a4df523b3ef60405160405180910390a45050565b6008805490506009600083815260200190815260200160002081905550600881908060018154018082558091505090600182039060005260206000200160009091929091909150555050565b600080823b905060008111915050919050565b6060808690506060869050606086905060608690506060869050606081518351855187518951010101016040519080825280601f01601f1916602001820160405280156135f65781602001600182028038833980820191505090505b509050606081905060008090506000809050600090505b88518110156136c057888181518110151561362457fe5b9060200101517f010000000000000000000000000000000000000000000000000000000000000090047f010000000000000000000000000000000000000000000000000000000000000002838380600101945081518110151561368357fe5b9060200101907effffffffffffffffffffffffffffffffffffffffffffffffffffffffffffff1916908160001a905350808060010191505061360d565b600090505b87518110156137785787818151811015156136dc57fe5b9060200101517f010000000000000000000000000000000000000000000000000000000000000090047f010000000000000000000000000000000000000000000000000000000000000002838380600101945081518110151561373b57fe5b9060200101907effffffffffffffffffffffffffffffffffffffffffffffffffffffffffffff1916908160001a90535080806001019150506136c5565b600090505b865181101561383057868181518110151561379457fe5b9060200101517f010000000000000000000000000000000000000000000000000000000000000090047f01000000000000000000000000000000000000000000000000000000000000000283838060010194508151811015156137f357fe5b9060200101907effffffffffffffffffffffffffffffffffffffffffffffffffffffffffffff1916908160001a905350808060010191505061377d565b600090505b85518110156138e857858181518110151561384c57fe5b9060200101517f010000000000000000000000000000000000000000000000000000000000000090047f01000000000000000000000000000000000000000000000000000000000000000283838060010194508151811015156138ab57fe5b9060200101907effffffffffffffffffffffffffffffffffffffffffffffffffffffffffffff1916908160001a9053508080600101915050613835565b600090505b84518110156139a057848181518110151561390457fe5b9060200101517f010000000000000000000000000000000000000000000000000000000000000090047f010000000000000000000000000000000000000000000000000000000000000002838380600101945081518110151561396357fe5b9060200101907effffffffffffffffffffffffffffffffffffffffffffffffffffffffffffff1916908160001a90535080806001019150506138ed565b82995050505050505050505095945050505050565b600073ffffffffffffffffffffffffffffffffffffffff166003600083815260200190815260200160002060009054906101000a900473ffffffffffffffffffffffffffffffffffffffff1673ffffffffffffffffffffffffffffffffffffffff16141515613a725760006003600083815260200190815260200160002060006101000a81548173ffffffffffffffffffffffffffffffffffffffff021916908373ffffffffffffffffffffffffffffffffffffffff1602179055505b50565b613a8d60018260000154613aae90919063ffffffff16565b816000018190555050565b6001816000016000828254019250508190555050565b6000828211151515613b28576040517f08c379a000000000000000000000000000000000000000000000000000000000815260040180806020018281038252601e8152602001807f536166654d6174683a207375627472616374696f6e206f766572666c6f77000081525060200191505060405180910390fd5b600082840390508091505092915050565b828054600181600116156101000203166002900490600052602060002090601f016020900481019282601f10613b7a57805160ff1916838001178555613ba8565b82800160010185558215613ba8579182015b82811115613ba7578251825591602001919060010190613b8c565b5b509050613bb59190613be5565b5090565b815481835581811115613be057818360005260206000209182019101613bdf9190613be5565b5b505050565b613c0791905b80821115613c03576000816000905550600101613beb565b5090565b9056fea165627a7a72305820229ed65eb164175c78fc96a03e2b7d09373dc4c878e41b8e9b11fc63154a77730029",
  "source": "//pragma solidity ^0.4.24;// mine\r\n//pragma solidity ^0.5.5;\r\npragma solidity ^0.5.0;\r\n//pragma solidity >=0.4.21 <0.6.0;\r\n//Truffle v4.1.14 (core: 4.1.14)\r\n//Solidity v0.4.24 (solc-js)\r\n\r\nimport \"./AdmanToken.sol\";\r\nimport \"./verifier.sol\";\r\n\r\n// TODO define a contract call to the zokrates generated solidity contract <Verifier> or <renamedVerifier>\r\n\r\n\r\n// TODO define another contract named SolnSquareVerifier that inherits from your ERC721Mintable class\r\ncontract SolnSquareVerifier is AdmanToken{\r\n    using SafeMath for uint256;\r\n\r\n    uint256 solutionsIndex = 1;\r\n\r\n    // TODO define a solutions struct that can hold an index & an address\r\n    struct Solution {\r\n        uint256 tokenId;\r\n        address account;\r\n        bool    alreadyExists;\r\n    }\r\n\r\n    Verifier proofVerifier;\r\n\r\n    constructor(address verifiersContractAddress, string memory name, string memory symbol)\r\n    AdmanToken(name, symbol) public{\r\n        proofVerifier = Verifier(verifiersContractAddress);\r\n    }\r\n\r\n    // TODO define an array of the above struct\r\n    Solution[] private _solutions;\r\n\r\n    // TODO define a mapping to store unique solutions submitted\r\n    mapping(uint256 => Solution) private submittedSolutions;\r\n\r\n    // TODO Create an event to emit when a solution is added\r\n    event SolutionAdded(address account);\r\n\r\n    function solutionExists(uint256 tokenId) public returns(bool){\r\n        return submittedSolutions[tokenId].alreadyExists;\r\n    }\r\n\r\n    // TODO Create a function to add the solutions to the array and emit the event\r\n    function addSolution(address account, uint256 tokenId) private{\r\n\r\n        _solutions.push(Solution({tokenId: tokenId, account: account, alreadyExists: true}));\r\n        submittedSolutions[tokenId] = Solution({tokenId: tokenId, account: account, alreadyExists: true});\r\n        solutionsIndex++;\r\n        emit SolutionAdded(account);\r\n    }\r\n\r\n\r\n    // TODO Create a function to mint new NFT only after the solution has been verified\r\n    //  - make sure the solution is unique (has not been used before)\r\n    //  - make sure you handle metadata as well as tokenSuplly\r\n    function mint(\r\n                   uint[2] memory a,\r\n                   uint[2][2] memory b,\r\n                   uint[2] memory c,\r\n                   uint[2] memory input,\r\n                   uint256 tokenId) public{\r\n\r\n        require(proofVerifier.verifyTx(a, b, c, input), \"Impossible to verify proof.\");\r\n\r\n\r\n        require(submittedSolutions[tokenId].alreadyExists==false, \"This proof already submitted.\");\r\n\r\n        addSolution(msg.sender, tokenId);\r\n\r\n        mint(msg.sender, tokenId);\r\n    }\r\n\r\n}\r\n\r\n\r\n\r\n\r\n\r\n\r\n\r\n\r\n\r\n\r\n\r\n\r\n\r\n\r\n\r\n\r\n\r\n\r\n\r\n\r\n\r\n\r\n\r\n\r\n\r\n",
  "sourcePath": "C:\\Users\\adman\\Documents\\block5\\Blockchain-Capstone\\eth-contracts\\contracts\\SolnSquareVerifier.sol",
  "compiler": {
    "name": "solc",
    "version": "0.5.0+commit.1d4f565a.Emscripten.clang"
  },
  "schemaVersion": "3.4.3",
  "updatedAt": "2021-12-09T13:45:23.877Z",
  "networkType": "ethereum",
  "devdoc": {
    "methods": {
      "isApprovedForAll(address,address)": {
        "details": "Tells whether an operator is approved by a given owner\r",
        "params": {
          "operator": "operator address which you want to query the approval of\r",
          "owner": "owner address which you want to query the approval of\r"
        },
        "return": "bool whether the given operator is approved by the given owner\r"
      },
      "setApprovalForAll(address,bool)": {
        "details": "Sets or unsets the approval of a given operator\r An operator is allowed to transfer all tokens of the sender on their behalf\r",
        "params": {
          "approved": "representing the status of the approval to be set\r",
          "to": "operator address to set the approval\r"
        }
      },
      "supportsInterface(bytes4)": {
        "details": "implement supportsInterface(bytes4) using a lookup table\r"
      },
      "tokenByIndex(uint256)": {
        "details": "Gets the token ID at a given index of all the tokens in this contract\r Reverts if the index is greater or equal to the total number of tokens\r",
        "params": {
          "index": "uint256 representing the index to be accessed of the tokens list\r"
        },
        "return": "uint256 token ID at the given index of the tokens list\r"
      },
      "tokenOfOwnerByIndex(address,uint256)": {
        "details": "Gets the token ID at a given index of the tokens list of the requested owner\r",
        "params": {
          "index": "uint256 representing the index to be accessed of the requested tokens list\r",
          "owner": "address owning the tokens list to be accessed\r"
        },
        "return": "uint256 token ID at the given index of the tokens list owned by the requested address\r"
      },
      "totalSupply()": {
        "details": "Gets the total amount of tokens stored by the contract\r",
        "return": "uint256 representing the total amount of tokens\r"
      }
    }
  },
  "userdoc": {
    "methods": {}
  }
}